:020000040800F2
:10000000005000209D120008DD030008DF030008F7
:10001000E1030008E3030008E50300080000000016
:10002000000000000000000000000000E7030008DE
:10003000E903000800000000EB030008ED030008DE
:10004000E5120008E5120008E5120008E5120008B4
:10005000E5120008E5120008E5120008E5120008A4
:10006000E5120008E5120008E5120008E512000894
:10007000E5120008E5120008F90300080904000869
:10008000E5120008E5120008E5120008E512000874
:10009000E5120008E5120008E5120008E512000864
:1000A000E5120008E5120008E5120008E512000854
:1000B000E5120008E5120008E5120008E512000844
:1000C000E5120008E5120008E5120008E512000834
:1000D000E5120008E5120008E5120008E512000824
:1000E000E5120008E5120008E51200080000000013
:1000F0000000000000000000000000000000000000
:0C01000000000000000000005FF808F1A3
:10010C0010B5054C237833B9044B13B10448AFF345
:10011C0000800123237010BD0400002000000000AB
:10012C00301300080C4B43B10C4810B50C49AFF31D
:10013C0000800C48036823B910BD0A48036833B922
:10014C007047094B002BF7D0BDE810401847064B01
:10015C00002BF5D0184700BF00000000301300083A
:10016C0008000020040000200000000010B5044628
:10017C00074B1868074BA3FB0030800900F032FBDB
:10018C00002221464FF0FF3000F0EEFA002010BDA7
:10019C0000000020D34D621008B5074A136843F0E5
:1001AC0010031360032000F0CDFA0020FFF7DEFFF0
:1001BC0000F02CF9002008BD00200240024A136810
:1001CC0001331360704700BF20000020014B1868FA
:1001DC00704700BF20000020F0B583B000263446E5
:1001EC0071E0002D00F0A180012D00D1CE68FF2B15
:1001FC0000F2AF808646FF2B00F2AE80A500DEF841
:10020C0000200F27AF4022EA070206FA05F52A4321
:10021C00CEF800204A6812F0805F53D0634A95698B
:10022C0045F001059561926902F001020192019A73
:10023C00A508AF1C5E4A52F8272004F00307BF0044
:10024C004FF00F0E0EFA07FE22EA0E02DFF870E1F5
:10025C00704500F088800EF5806E704500F0868049
:10026C000EF5806E704500F084800EF5806E704542
:10027C0076D04FF0040E0EFA07F73A4302354C4F86
:10028C0047F825204A6812F4803F75D0494D2A68FA
:10029C001A432A604A6812F4003F73D0454D6A68CD
:1002AC001A436A604A6812F4801F71D0414DAA68E3
:1002BC001A43AA604A6812F4001F6FD03D4DEA68D9
:1002CC001343EB6001340F2C6ED80122A2400B6853
:1002DC0013409A42F6D14D68122D30D00BD8022D16
:1002EC002AD07FF67EAF032D2FD0112D7FF47FAF58
:1002FC00CE6804367BE7304FBD4216D00CD92F4F59
:10030C00BD4212D007F58037BD420ED0A7F580173D
:10031C00BD427FF46CAF08E0A7F58017BD4204D056
:10032C0007F58037BD427FF462AF8D687DB1012D3A
:10033C0008D0426108265AE7CE68083657E7CE68DF
:10034C000C3654E70261082651E700264FE70426D5
:10035C004DE700F1040E4EE7A4F10805AD004EE7A1
:10036C004FF0030E87E74FF0000E84E74FF0010EBD
:10037C0081E74FF0020E7EE70E4D2A6822EA030257
:10038C002A6087E70B4D6A6822EA03026A6089E7F4
:10039C00084DAA6822EA0302AA608BE7054DEA68B9
:1003AC0022EA0303EB608DE703B0F0BD00100240BE
:1003BC000000014000040140000021100000311039
:1003CC000008014012B909040161704701617047CE
:1003DC007047FEE7FEE7FEE7FEE7704770477047A1
:1003EC0008B5FFF7EBFE00F024FA08BD08B502488B
:1003FC0000F086FA08BD00BF2400002008B50248B2
:10040C0000F07EFA08BD00BF6800002000B583B084
:10041C00214B9A6942F001029A619B6903F0010336
:10042C000193019B032000F08DF9002211466FF01F
:10043C000B0000F099F9002211466FF00A0000F051
:10044C0093F9002211466FF0090000F08DF900229B
:10045C0011466FF0040000F087F9002211466FF08E
:10046C00030000F081F9002211466FF0010000F04A
:10047C007BF9002211464FF0FF3000F075F9074B65
:10048C005A6822F0E0625A605A6842F080625A6000
:10049C0003B05DF804FB00BF0010024000000140F7
:1004AC0002682D4B9A4200D0704770B586B0044656
:1004BC0003F558439A6942F480429A619B6903F4AC
:1004CC0080430193019B4FF4007302930223039327
:1004DC0003230593214E02A93046FFF77DFE4FF40E
:1004EC008063029300250395049502A93046FFF71B
:1004FC0073FE1B481B4B0360456085608023C36003
:10050C000561456120238361C56100F0BDF9C0B967
:10051C00134B63635C621448144B036010234360F9
:10052C00002383608022C2600361436120228261C8
:10053C00C36100F0A9F948B90B4B23635C6206B0A8
:10054C0070BD7E210A4800F08FF8E1E78E21084843
:10055C0000F08AF8F0E700BF0038014000080140C5
:10056C006800002058000240240000204400024093
:10057C005C130008F0B589B0274B9A6942F0100261
:10058C009A619A6902F010020092009A9A6942F0FC
:10059C0020029A619A6902F020020192019A9A69EA
:1005AC0042F004029A619A6902F004020292029AE1
:1005BC009A6942F008029A619B6903F0080303935D
:1005CC00039B164F0022FF213846FFF7FBFE144C0D
:1005DC00002241F601712046FFF7F4FEFF2304933D
:1005EC00012605960225079504A93846FFF7F4FD68
:1005FC0041F6017304930596079504A92046FFF76D
:10060C00EBFDFE23049300230593069304A92046D7
:10061C00FFF7E2FD09B0F0BD0010024000080140F8
:10062C00000C014000B583B00E4B5A6942F0010238
:10063C005A615B6903F001030193019B002211468F
:10064C000E2000F091F80E2000F0C0F800221146A8
:10065C000F2000F089F80F2000F0B8F803B05DF817
:10066C0004FB00BF00100240FEE7000008B50B4879
:10067C000B4B03604FF4E133436000238360C36092
:10068C0003610C2242618361C36100F0B3FA00B9CB
:10069C0008BDB3210348FFF7E7FF00BFAC00002003
:1006AC00003801407413000800B591B00122069285
:1006BC004FF480330793002108910A9202220D9285
:1006CC000E934FF4E0130F9306A800F0D9FA08BB71
:1006DC000F23019302210291002303934FF48062B4
:1006EC000492059301A800F0F1FCB8B900F0AAFD42
:1006FC000C4BA3FB0030800900F074F8042000F0D0
:10070C0087F8002211464FF0FF3000F02DF811B0A1
:10071C005DF804FB88210448FFF7A6FF96210248E8
:10072C00FFF7A2FFD34D62107413000808B5FFF752
:10073C0033FDFFF7B9FFFFF71DFFFFF773FFFFF75F
:10074C0095FFFEE7074AD36823F4E0631B041B0CF8
:10075C00000200F4E060184340F0BF6040F4003049
:10076C00D060704700ED00E030B4164BDB68C3F38B
:10077C000223C3F10704042C28BF04241D1D062DDD
:10078C0017D9033B012505FA04F4013C214099409B
:10079C0005FA03F3013B1340194300280BDB090155
:1007AC00C9B200F1604000F5614080F8001330BC24
:1007BC0070470023E6E700F00F000901C9B2024BB5
:1007CC001954F4E700ED00E014ED00E0420900F0EC
:1007DC001F00012303FA00F0014B43F8220070477D
:1007EC0000E100E00138B0F1807F0AD2064B58607E
:1007FC00F021064A82F823100020986007221A6024
:10080C0070470120704700BF10E000E000ED00E0F1
:10081C00042805D0054A136823F0040313607047BD
:10082C00024A136843F004031360704710E000E0C1
:10083C00704708B5FFF7FCFF08BD00000F4B1A68A6
:10084C0042F001021A6059680D4A0A405A601A684F
:10085C0022F0847222F480321A601A6822F4802208
:10086C001A605A6822F4FE025A604FF41F029A6012
:10087C004FF00062034B9A60704700BF00100240BB
:10088C000000FFF800ED00E0002830D010B4034663
:10089C000068184A02441849A1FB0212120992007E
:1008AC001A64164ADA63022283F82120016821F4C3
:1008BC007F5121F030015A689C682243DC68224346
:1008CC001C6922435C6922439C692243DC692243F4
:1008DC000A43026000209862D862186358639863D8
:1008EC00012283F8212083F8200010BC70470120DE
:1008FC00704700BFF8FFFDBFCDCCCCCC0000024050
:10090C0038B5C36B1A6804682568016C04238B40E6
:10091C001A4236D015F0040F33D0236813F0200F91
:10092C0003D1236823F0040323600368434A9342F2
:10093C0014D01432934219D01432934218D014327A
:10094C00934218D01432934218D01432934202D0EE
:10095C004FF0806203E04FF4800200E00422384B39
:10096C005A60C36A002B67D0984738BD4022F6E71F
:10097C004FF48062F3E74FF48042F0E74FF48022AB
:10098C00EDE702238B401A423BD015F0020F38D012
:10099C00236813F0200F06D1236823F00A03236089
:1009AC00012380F821300368244A934214D0143276
:1009BC0093421BD0143293421AD0143293421AD061
:1009CC00143293421AD01432934202D04FF0007278
:1009DC0003E04FF4001200E00222194B5A6000238E
:1009EC0080F82030836A3BB3984738BD2022F4E767
:1009FC004FF40072F1E74FF40052EEE74FF400327F
:100A0C00EBE7082303FA01F10A4215D015F0080FA1
:100A1C0012D0236823F00E032360C16B026C0123F8
:100A2C0003FA02F24A60836380F82130002380F8D5
:100A3C002030036B03B1984738BD00BF080002405B
:100A4C00000002402DE9F04705460268136923F4C3
:100A5C004053C1680B4313618368026913434269B5
:100A6C0013430168CA6822F4B05222F00C021343FB
:100A7C00CB600268536923F4407381690B43536163
:100A8C00D0F80080594B984557D000F0E1FB00EBB3
:100A9C00800000EB80006C68A400B0FBF4F4544FB1
:100AAC00A7FB04346409260100F0D2FB00EB8000A4
:100ABC0000EB80006C68A400B0FBF4FA00F0C8FBFB
:100ACC0000EB800000EB80006C68A400B0FBF4F439
:100ADC00A7FB043464094FF0640909FB14A4240136
:100AEC003234A7FB0434640904F0F004344400F0FD
:100AFC00AFFB00EB800000EB80006E68B600B0FB33
:100B0C00F6F600F0A5FB00EB800000EB80006B68B4
:100B1C009B00B0FBF3F0A7FB0030400909FB106908
:100B2C004FEA091909F13209A7FB0937C7F3431733
:100B3C002744C8F80870BDE8F08700F099FB00EB7B
:100B4C00800000EB80006C68A400B0FBF4F4284F2C
:100B5C00A7FB04346409260100F08AFB00EB80003B
:100B6C0000EB80006C68A400B0FBF4FA00F080FB92
:100B7C0000EB800000EB80006C68A400B0FBF4F488
:100B8C00A7FB043464094FF0640909FB14A4240185
:100B9C003234A7FB0434640904F0F004344400F04C
:100BAC0067FB00EB800000EB80006E68B600B0FBCA
:100BBC00F6F600F05DFB00EB800000EB80006B684C
:100BCC009B00B0FBF3F3A7FB03235B0909FB136941
:100BDC004FEA091909F13209A7FB0937C7F3431783
:100BEC002744C8F80870BDE8F08700BF0038014002
:100BFC001F85EB5158B310B5044690F839300BB340
:100C0C00242384F839302268D36823F40053D3604A
:100C1C002046FFF717FF2268136923F490431361F2
:100C2C002268536923F02A0353612268D36843F482
:100C3C000053D3600020E063202384F8393084F81B
:100C4C003A3010BD80F83830FFF72AFCD8E7012085
:100C5C007047000082B0084B1B68084AA2FB0323B4
:100C6C005B0A00FB03F0019000BF019B5A1E01922E
:100C7C00002BF9D102B0704700000020D34D621058
:100C8C0070B582B00446036813F0010F3DD0AC4B35
:100C9C005B6803F00C03042B2ED0A94B5B6803F0AC
:100CAC000C03082B23D06368B3F5803F51D0002B85
:100CBC0055D103F1804303F504331A6822F48032D2
:100CCC001A601A6822F480221A606368002B60D0C4
:100CDC00FFF77CFA05469A4B1B6813F4003F14D1BE
:100CEC00FFF774FA401B6428F5D90320AFE1944B4D
:100CFC005B6813F4803FD6D0914B1B6813F4003F14
:100D0C0003D06368002B00F09F81236813F0020F5F
:100D1C0065D08B4B5B6813F00C0F4ED0884B5B6827
:100D2C0003F00C03082B43D02369002B79D001224C
:100D3C00844B1A60FFF74AFA0546814B1B6813F087
:100D4C00020F65D1FFF742FA401B0228F5D90320A8
:100D5C007DE17B4A136843F480331360B5E7B3F548
:100D6C00A02F09D0764B1A6822F480321A601A68C8
:100D7C0022F480221A60A8E703F18043A3F53C33E8
:100D8C001A6842F480221A601A6842F480321A609F
:100D9C009BE7FFF71BFA0546694B1B6813F4003FF2
:100DAC00B3D0FFF713FA401B6428F5D903204EE1AA
:100DBC00634B5B6813F4803FB6D1614B1B6813F037
:100DCC00020F04D02369012B01D001203FE15C4AC2
:100DDC00136823F0F803616943EAC10313602368C5
:100DEC0013F0080F32D0A369002B6ED00122564BA2
:100DFC001A60FFF7EBF90546514B5B6A13F0020FD3
:100E0C0021D1FFF7E3F9401B0228F5D903201EE19D
:100E1C004B4A136823F0F803616943EAC10313607A
:100E2C00DDE70022474B1A60FFF7D0F90546444B2B
:100E3C001B6813F0020FD2D0FFF7C8F9401B022831
:100E4C00F5D9032003E10120FFF704FF236813F019
:100E5C00040F00F099803A4BDB6913F0805F46D1A8
:100E6C00374BDA6942F08052DA61DB6903F0805368
:100E7C000193019B0125354B1B6813F4807F38D0FF
:100E8C00E368012B49D0002B4DD103F1804303F5CE
:100E9C0004331A6A22F001021A621A6A22F004025E
:100EAC001A62E368002B5DD0FFF790F90646244BDD
:100EBC001B6A13F0020F66D1FFF788F9801B41F211
:100ECC0088339842F3D90320C1E000221E4B1A60EC
:100EDC00FFF77CF905461A4B5B6A13F0020FB5D08D
:100EEC00FFF774F9401B0228F5D90320AFE0002569
:100EFC00C1E7164A136843F480731360FFF766F971
:100F0C000646124B1B6813F4807FB9D1FFF75EF9CC
:100F1C00801B6428F5D9032099E0094A136A43F031
:100F2C0001031362BDE7052B12D0054B1A6A22F0A0
:100F3C0001021A621A6A22F004021A62B1E700BFB7
:100F4C000010024000004242800442420070004007
:100F5C00414B1A6A42F004021A621A6A42F0010208
:100F6C001A629EE7FFF732F906463B4B1B6A13F0F9
:100F7C00020F08D0FFF72AF9801B41F28833984200
:100F8C00F3D9032063E0E5B9E369002B5ED0324A64
:100F9C00526802F00C02082A5BD0022B17D00022F8
:100FAC002E4B1A60FFF712F904462B4B1B6813F0FB
:100FBC00007F47D0FFF70AF9001B0228F5D9032060
:100FCC0045E0254AD36923F08053D361DCE7002246
:100FDC00224B1A60FFF7FAF805461F4B1B6813F0FB
:100FEC00007F06D0FFF7F2F8401B0228F5D903204A
:100FFC002DE0236AB3F5803F1AD017494B6823F4D0
:10100C007413226A606A024313434B600122134B30
:10101C001A60FFF7DBF804460F4B1B6813F0007FD8
:10102C000ED1FFF7D3F8001B0228F5D903200EE0F0
:10103C00094A536823F40033A1680B435360DCE77F
:10104C00002004E0002002E0012000E0002002B0BB
:10105C0070BD0120FBE700BF00100240600042425F
:10106C0010B586B0154C94E80F000DF1180E0EE972
:10107C000F00238AADF80430114B5B6803F00C02AF
:10108C00082A18D1C3F38342724412F8100C13F4DB
:10109C00803F03D10B4B03FB00F00DE0084B5B686A
:1010AC00C3F34043734413F8142C074BB3FBF2F314
:1010BC0003FB00F000E0044806B010BD4813000824
:1010CC000010024000093D0000127A00594B1B68C9
:1010DC0003F007038B420CD2564A136823F0070324
:1010EC000B431360136803F00703994201D00120EE
:1010FC00704770B5036813F0020F06D04E4A536860
:10110C0023F0F0038468234353600D4604460368C0
:10111C0013F0010F52D04368012B23D0022B28D09F
:10112C00454A126812F0020F00F0828042494A6868
:10113C0022F0030213434B60FFF748F8064663683E
:10114C00012B1DD0022B2AD03B4B5B6813F00C0FEC
:10115C0034D0FFF73BF8801B41F288339842F3D927
:10116C00032070BD344A126812F4003FDED1012016
:10117C0070BD314A126812F0007FD7D1012070BDCA
:10118C002D4B5B6803F00C03042B17D0FFF71EF8F4
:10119C00801B41F288339842F2D9032070BD264B54
:1011AC005B6803F00C03082B08D0FFF70FF8801BCB
:1011BC0041F288339842F2D9032070BD1D4B1B6855
:1011CC0003F007039D420CD21A4A136823F007035D
:1011DC002B431360136803F007039D4201D00120D9
:1011EC0070BD236813F0040F06D0134A536823F420
:1011FC00E063E1680B435360236813F0080F07D0DA
:10120C000D4A536823F46053216943EAC1035360C8
:10121C00FFF726FF084B5B68C3F30313074AD35C45
:10122C00D840074B18600020FEF7A0FF002070BDCF
:10123C00012070BD00200240001002408013000805
:10124C0000000020014B1868704700BF0000002010
:10125C0008B5FFF7F7FF044B5B68C3F30223034A9F
:10126C00D35CD84008BD00BF0010024090130008AA
:10127C0008B5FFF7E7FF044B5B68C3F3C223034ACF
:10128C00D35CD84008BD00BF00100240901300088A
:10129C00002103E00B4B5B58435004310A480B4BC5
:1012AC0042189A42F6D30A4A02E0002342F8043B61
:1012BC00084B9A42F9D3FFF7C1FA00F00FF8FFF789
:1012CC0035FA7047A013000800000020040000202D
:1012DC0004000020EC000020FEE7000070B50025A3
:1012EC000C4E0D4CA41BA410A54209D100F01AF809
:1012FC0000250A4E0A4CA41BA410A54205D170BDB2
:10130C0056F8253098470135EEE756F825309847C2
:10131C000135F2E798130008981300089813000899
:10132C009C130008F8B500BFF8BC08BC9E4670477B
:0C133C00F8B500BFF8BC08BC9E46704726
:1013480002030405060708090A0B0C0D0E0F1010FE
:10135800010200005372632F73746D333266317863
:10136800785F68616C5F6D73702E63005372632FD2
:101378006D61696E2E63000000000000000000002F
:101388000102030406070809000000000102030423
:041398003101000817
:04139C000D01000837
:0413A00000A24A0459
:040000050800129D40
:00000001FF
